:100000000C944A170C947B170C947B170C947B1759
:100010000C947B170C947B170C947B170C947B1718
:100020000C947B170C947B170C947B170C947B1708
:100030000C947B170C9469840C947B170C947B179D
:100040000C947B170C9482470C947B170C947B17B1
:100050000C947B170C947B170C94F5F10C94B83C22
:100060000C947B170C9497880C947B170C947B173B
:100070000C947B170C947B170C947B170C947B17B8
:100080000C941C510C947B170C947B170C947B17CD
:100090000C947B170C947B170C947B170C94755461
:1000A0000C947B170C947B170C9447500C947B1783
:1000B0000C947B170C947B170C947B170C94724F49
:1000C0000C947B170C947B170C947B170C947B1768
:1000D0000C947B170C947B170C947B170C947B1758
:1000E0000C947B1714231423331D331DCD1CDE18F1
:1000F000DE18DE18DE18DE18DE18DE18DE18DE1850
:10010000DE18DE18DE18DE18DE18DE18DE18DE183F
:10011000DE18DE18DE18DE18DE18DE18931A5524F5
:100120002923DE18DE18DE18DE18DE18DE18DE18C9
:10013000DE18DE18DE18DE18DE18DE18DE18DE180F
:10014000DE18DE18DE18DE18DE18DE18DE18DE18FF
:10015000DE18DE18DE18DE18DE18DE18DE18DE18EF
:10016000DE18DE18DE18DE18DE18DE18DE18DE18DF
:10017000DE18DE18DE18DE18DE18DE18DE18DE18CF
:10018000DE18DE18DE18DE18DE18DE18DE18DE18BF
:10019000DE18DE18DE18DE1825232023C3192755A4
:1001A000C054C054C054C054C054C054C05431553D
:1001B000C054C054C054C054C054C054C05431552D
:1001C000C054C054C054C054C054C054C054395515
:1001D000C054C054C054C054C054C054C0544D55F1
:1001E000C054C054C054C054C054C054C0543955F5
:1001F000C054C054C054C054C054C054C054EF5430
:10020000C054C054C054C054C054C054C054FC5412
:10021000C054C054C054C054C054C054C054E85416
:10022000C054C054C054C054C054C054C0547A5573
:10023000C054C054C054C054C054C054C054DC5402
:10024000C054C054C054C054C054C054C0540555C8
:10025000C054C054C054C054C054C054C0541E559F
:10026000C054C054C054C054C054C054C0541E558F
:10027000C054C054C054C054C054C054C0541E557F
:10028000C054C054C054C054C054C054C0541E556F
:10029000C054C054C054C054C054C054C054D354AB
:1002A000C054C054C054C054C054C054C054D85496
:1002B000C054C054C054C054C054C054C054D3548B
:1002C000C054C054C054C054C054C054C054D85476
:1002D000C054C054C054C054C054C054C0545855E5
:1002E000C054C054C054C054C054C054C054965498
:1002F000C054C054C054C054C054C054C054965488
:10030000C054C054C054C054C054C054C054AB5462
:10031000C054C054C054C054C054C054C054745588
:10032000C054C054C054C054C054C054C054745578
:10033000307F347F387F3E7F447F2F7F4A7F507FDE
:10034000567F5C7F627F687F6E7F747F2F7F7A7FAE
:10035000807F2A7FCF83D783DC83E683F083BE83CD
:10036000FA8302840A8414841E8428843784418496
:10037000BE834B8455845F8445F35BF37CF392F337
:10038000B3F3BEF3C7F3D2F3DBF3E6F3EFF3FAF321
:1003900040F3084AD73B3BCE016E84BCBFFDC12F62
:1003A0003D6C74319ABD56833DDA3D00C77F11BE66
:1003B000D9E4BB4C3E916BAAAABE000000803F0569
:1003C000A84CCDB2D44EB93836A9020C50B991869A
:1003D00088083CA6AAAA2ABE000000803F000D940F
:1003E000960F0D94380F4C4556454C494E470043E7
:1003F0004F4D4D554E49434154494F4E004452597B
:1004000052554E004552524F525300494E464F00EE
:100410004543484F0047322F4733206261642070C4
:100420006172616D65746572730A00536C65657005
:100430002E2E2E00203A2073796E635F706C616EF1
:100440005F706F736974696F6E0A00202063757244
:1004500072656E745F706F736974696F6E3D003C96
:100460003C3C207365745F617869735F69735F6199
:10047000745F686F6D652800203A200A00202063B1
:10048000757272656E745F706F736974696F6E3DBB
:10049000005D203D20003E20686F6D655F6F6666E1
:1004A0007365745B000000000000000000482192AA
:1004B000433E3E3E207365745F617869735F697384
:1004C0005F61745F686F6D652800203A203C3C3C9A
:1004D00020686F6D655F64656C74610A002020633D
:1004E000757272656E745F706F736974696F6E3D5B
:1004F00000203A203E3E3E20686F6D655F64656C6B
:1005000074610A00202063757272656E745F706F8B
:10051000736974696F6E3D003C3C3C2067636F6497
:10052000655F4732380A003E20656E6473746F70F1
:10053000732E656E61626C652874727565290A0098
:100540003E3E3E2067636F64655F4732380A002095
:100550005A3A200020593A200042656420583A2037
:1005600000203A2073796E635F706C616E5F706F0C
:10057000736974696F6E5F6B696E656D61746963D1
:100580000A00202063757272656E745F706F736904
:1005900074696F6E3D0042696C6C2042616927731B
:1005A0002044656C74612000526573756D696E67D7
:1005B000207072696E74005761697420666F7220D2
:1005C000757365722E2E2E00456E642066696C650B
:1005D000206C6973740A00426567696E2066696CF5
:1005E00065206C6973740A005344207072696E74DC
:1005F000696E67206279746520004E6F74205344E1
:10060000207072696E74696E670A0046696C6520B5
:1006100064656C657465643A0044656C6574696F03
:100620006E206661696C65642C2046696C653A20B1
:10063000006F70656E206661696C65642C20466988
:100640006C653A20002569730025696D2025697362
:10065000002569682025696D202569730025696476
:10066000202569682025696D202569730025697931
:1006700020256964202569682025696D2025697316
:10068000005072696E742074696D653A2000507272
:100690006F7465637465642050696E0A0048656113
:1006A00074696E672E2E2E0042696C6C204261695F
:1006B00027732044656C7461200010040B0404044B
:1006C000FD03EF03E6036F66660044454255473A73
:1006D000004B494C4C45442E20004D3131332053C2
:1006E000006F6B0048656174696E6720646F6E65AA
:1006F0002E003F0A0020573A0048656174696E6712
:100700002E2E2E0042696C6C2042616927732044B2
:10071000656C7461200042656420646F6E652E0014
:100720004265642048656174696E672E00464952CF
:100730004D574152455F4E414D453A4D61726C698E
:100740006E20312E312E302D5243382028476974C7
:100750006875622920534F555243455F434F4445C6
:100760005F55524C3A68747470733A2F2F676974EE
:100770006875622E636F6D2F4D61726C696E46698C
:10078000726D776172652F4D61726C696E20505287
:100790004F544F434F4C5F56455253494F4E3A3199
:1007A0002E30204D414348494E455F545950453AFB
:1007B00042696C6C2042616927732044656C7461E6
:1007C0002045585452554445525F434F554E543A74
:1007D0003120555549443A63656465326132662D6E
:1007E000343161322D343734382D396231322D6352
:1007F00035356336326633363766660A00205A006E
:10080000205900580020204D61783A2000205A00DD
:10081000205900580020204D696E3A20004F66662E
:1008200000536F667420656E6473746F70733A2042
:1008300000416374697665204578747275646572E9
:100840003A20003C3C3C2067636F64655F540A00BB
:10085000203A2041465445520A00202063757272A6
:10086000656E745F706F736974696F6E3D00203AD6
:10087000204245464F52450A00202063757272653A
:100880006E745F706F736974696F6E3D003E3E3EBB
:100890002067636F64655F542800556E6B6E6F77D9
:1008A0006E20636F6D6D616E643A2022004E6F2082
:1008B0006D6F76652E002D2D2D2D2D2D2D2D007C6F
:1008C000414E5943554249437C002D2D2D2D2D2D50
:1008D0002D2D0057656C636F6D6520746F20416E20
:1008E0007963756269632E0057656C636F6D65206F
:1008F000746F20416E7963756269632E0020312E1A
:10090000312E302D524338002020506C616E6E65C0
:100910007242756666657242797465733A2000208A
:1009200046726565204D656D6F72793A2000436FA0
:100930006D70696C65643A204A756E2032322032DF
:100940003031370A00207C20417574686F723A207C
:10095000286E6F6E652C2064656661756C7420630B
:100960006F6E666967290A00323031362D31322DBB
:1009700030362031323A303000204C6173742055CB
:100980007064617465643A2000312E312E302D522E
:1009900043380A00416E7963756269630020536FC2
:1009A0006674776172652052657365740A0020571A
:1009B00061746368646F672052657365740A002010
:1009C00042726F776E206F75742052657365740A7A
:1009D000002045787465726E616C20526573657491
:1009E0000A00506F77657255700A007374617274F3
:1009F0000A006572726F722077726974696E67207F
:100A0000746F2066696C650A00456E6473746F705C
:100A10007320256320256320256320256300205A49
:100A20003A0020593A0020583A00656E6473746F9A
:100A30007073206869743A2000446F6E652073619A
:100A400076696E672066696C652E0A004D32390042
:100A50004572726F722077726974696E6720746F65
:100A600020454550524F4D210A002062797465732C
:100A7000290A0053657474696E67732053746F722A
:100A80006564202800454550524F4D2063686563DA
:100A90006B73756D206D69736D617463680A0020F6
:100AA0006279746573290A002073746F726564201B
:100AB00073657474696E67732072657472696576A4
:100AC000656420280048617264636F646564204433
:100AD000656661756C742053657474696E67732004
:100AE0004C6F616465640A00534420636172642042
:100AF0006F6B0A006F70656E526F6F74206661696C
:100B00006C65640A00766F6C756D652E696E69742C
:100B1000206661696C65640A00534420696E6974DB
:100B2000206661696C0A006175746F25692E670023
:100B30004D3234004D323320257300577269746989
:100B40006E6720746F2066696C653A20006F70656F
:100B50006E206661696C65642C2046696C653A207C
:100B6000006F70656E206661696C65642C20466953
:100B70006C653A200046696C652073656C6563742A
:100B800065640A002053697A653A200046696C65FD
:100B9000206F70656E65643A20006F70656E206628
:100BA00061696C65642C2046696C653A200020669A
:100BB000696C653A20004E6F7720002220706F73B9
:100BC000002220706172656E743A220053554252C1
:100BD0004F5554494E452043414C4C207461726737
:100BE00065743A22004B494C4C45442E20007472E7
:100BF00079696E6720746F2063616C6C2073756215
:100C00002D67636F64652066696C6573207769740E
:100C10006820746F6F206D616E79206C6576656CED
:100C2000732E204D4158206C6576656C2069733AAF
:100C3000004572726F723A0043616E6E6F74206F7E
:100C400070656E2073756264697220006563686FF9
:100C50003A0024F4D43050C38E20C2A24017828BB5
:100C60007011127A910D816CD90AA861E108C758F8
:100C70006607615143061E4B5D05C145A7041A4135
:100C80001104093D9803713931034036DB026533A5
:100C90009102D4305402802E1D02632CEE01752A7D
:100CA000C501B028A001102781018F2564012B24E4
:100CB0004B01E0223401AC211F018D200D01801F6A
:100CC000FC00841EED00971DDF00B81CD200E61B5F
:100CD000C600201BBC00641AB200B219A8000A1991
:100CE000A0006A189900D117910040178B00B51623
:100CF000840031167E00B31579003A157300C714CD
:100D00006F0058146A00EE13660088136300251301
:100D10005E00C7125B006C12570015125400C1111F
:100D2000510070114F0021114B00D61049008D1059
:100D300047004610440002104200C00F4000800FE0
:100D40003E00420F3C00060F3B00CB0E3800930ED6
:100D500037005C0E3500270E3400F30D3200C10D54
:100D60003100900D3000600D2E00320D2D00050D6C
:100D70002C00D90C2B00AE0C2900850C29005C0C32
:100D80002700350C27000E0C2600E80B2400C40BAE
:100D90002400A00B23007D0B23005A0B2100390BEC
:100DA0002100180B2000F80A1F00D90A1E00BB0AF8
:100DB0001E009D0A1D00800A1D00630A1C00470AD0
:100DC0001B002C0A1B00110A1A00F7091A00DD0982
:100DD0001900C4091900AB091900920917007B0911
:100DE0001800630917004C0916003609160020097F
:100DF00016000A091500F5081500E0081400CC08D3
:100E00001400B8081400A4081400900813007D080A
:100E100012006B081300580812004608120034082C
:100E20001100230811001208110001081100F00739
:100E30001000E0071000D0071000C0071000B00736
:100E40000F00A107100091070E0083070F00740721
:100E50000F0065070E0057070E0049070E003B07FD
:100E60000D002E070E0020070D0013070D000607CA
:100E70000D00F9060C00ED060D00E0060C00D4068E
:100E80000C00C8060C00BC060C00B0060C00A40642
:100E90000B0099060C008D060B0082060B007706EE
:100EA0000B006C060B0061060A0057060B004C068F
:100EB0000A0042060A0038060A002E060A00240626
:100EC0000A001A060A001006090007060A00FD05B6
:100ED0000900F4050900EB050900E2050900D90540
:100EE0000900D0050900C7050900BE050900B505C0
:100EF0000800AD050800A50509009C05080094053B
:100F000008008C050800840508007C0508007405AD
:100F100008006C050700650508005D05070056051B
:100F200008004E0507004705070040050800380582
:100F30000700310507002A050700230507001C05E7
:100F40000600160507000F05070008050600020544
:100F50000700FB040600F5040700EE040600E804A1
:100F60000600E2040700DB040600D5040600CF04F7
:100F70000600C9040600C3040600BD040600B70449
:100F80000600B1040500AC040600A6040600A00497
:100F900005009B04060095040500900406008A04E1
:100FA000050085040500800406007A040500750428
:100FB0000500700405006B0405006604050061046B
:100FC00005005C04050057040500520405004D04AB
:100FD000050048040500430405003E0404003A04EB
:100FE000050035040500300404002C040500270426
:100FF0000400230405001E0404001A04040016045F
:101000000500110404000D04040009040500040493
:10101000040000040400FC030400F8030400F403CB
:101020000400F0030400EC030400E8030400E403FC
:101030000400E0030400DC030400D8030400D4032C
:101040000400D0030400CC030400C8030300C5035C
:10105000030024F404D9201BC40C5C0E9804C409BA
:101060005F0265077101F405F900FB04B300480451
:101070008700C10369005803550003034500BE0201
:101080003A008402310053022A002902250004029A
:101090002000E4011C00C8011900AF0117009801ED
:1010A000140084011300710110006101100051014E
:1010B0000E0043010D0036010B002B010B00200137
:1010C0000B00150109000C01090003010800FB00D9
:1010D0000800F3000800EB000700E4000600DE0053
:1010E0000600D8000600D2000600CC000500C700AC
:1010F0000500C2000500BD000400B9000400B500F1
:101100000400B1000400AD000400A9000400A50023
:101110000300A20003009F0004009B00030098004E
:1011200003009500020093000300900003008D006F
:1011300002008B0003008800020086000200840089
:101140000300810002007F0002007D0002007B009E
:1011500002007900020077000100760002007400AE
:10116000020072000100710002006F0002006D00B9
:1011700001006C0002006A000100690002006700C3
:1011800001006600010065000100640002006200C9
:10119000010061000100600001005F0002005D00CD
:1011A00001005C0001005B0001005A0001005900D1
:1011B00001005800010057000100560001005500D1
:1011C00001005400010053000000530001005200D0
:1011D000010051000100500001004F0001004E00CD
:1011E00000004E0001004D0001004C0001004B00CA
:1011F00000004B0001004A000100490001004800C6
:1012000000004800010047000100460000004600C1
:1012100001004500000045000100440001004300BA
:1012200000004300010042000000420001004100B4
:10123000000041000100400001003F0000003F00AD
:1012400001003E0000003E0001003D0000003D00A6
:1012500001003C0000003C0000003C0001003B009D
:1012600000003B0001003A0000003A000100390094
:10127000000039000100380000003800000038008C
:101280000100370000003700010036000000360082
:101290000000360001003500000035000000350078
:1012A000010034000000340000003400010033006D
:1012B0000000330000003300010032000000320063
:1012C0000000320001003100000031000000310058
:1012D00001003000000030000000300001002F004D
:1012E00000002F0000002F0000002F0001002E0042
:1012F00000002E0000002E0001002D0000002D0037
:1013000000002D0000002D0001002C0000002C002A
:1013100000002C0000002C0001002B0000002B001E
:1013200000002B0000002B0001002A0000002A0012
:1013300000002A0000002A00010029000000290006
:1013400000002900000029000000290001002800F9
:1013500000002800000028000000280000002800ED
:1013600001002700000027000000270000002700E0
:1013700000002700010026000000260000002600D3
:1013800000002600000026000100250000002500C6
:1013900000002500000025000000250000002500B9
:1013A00001002400000024000000240000002400AC
:1013B000000024000100230000002300000023009F
:1013C0000000230000002300000023000000230091
:1013D0000100220000002200000022000000220084
:1013E0000000220000002200010021000000210076
:1013F0000000210000002100000021000000210069
:10140000000021000100200000002000000020005A
:10141000000020000000200000002000000020004C
:101420000000200001001F0000001F0000001F003E
:1014300000001F0000001F0000001F0000001F0030
:1014400001001E0000001E0000001E0000001E0023
:1014500000004D383420582059205A20450043615F
:1014600072642072656D6F766564004361726420FA
:10147000696E7365727465640041424C2041646A10
:101480007573746D656E74205A002028656E6162F4
:101490006C6564290A0042494C494E45415200415D
:1014A00075746F20426564204C6576656C696E6763
:1014B0003A2000204E6F7A7A6C65290A0020262097
:1014C00041626F76650020262053616D65205A20A9
:1014D00061730020262042656C6F77002D46726F85
:1014E0006E740020284C65667400205A3A0020591A
:1014F0003A0050726F6265204F66667365742058BB
:101500003A00424C544F5543480A0050726F62658E
:101510003A200044656C74610A004D616368696E2D
:101520006520547970653A200020706F7369746982
:101530006F6E206F7574206F662072616E67652E06
:101540000A003F50726F62652000206669727374F2
:10155000005A0059005800486F6D652000206669E8
:101560007273740A005A0059005800486F6D652064
:1015700000203D3D3D3D00202020200042696C6957
:101580006E656172204C6576656C696E6720477286
:1015900069643A0A20003C3C3C2067636F64655FE5
:1015A0004732390A0020636F727265637465642084
:1015B0005A3A0047323920756E636F7272656374F0
:1015C0006564205A3A00203A203E2070726F6269AA
:1015D0006E6720636F6D706C6574650A0020206310
:1015E000757272656E745F706F736974696F6E3D4A
:1015F0000028422961636B00284629726F6E7400CF
:101600002852296967687400284C2965667400525D
:10161000756E6E696E6720696E204452592D525561
:101620004E206D6F64650A00473239204175746F32
:1016300020426564204C6576656C696E670A003FE0
:101640002856296572626F7365204C6576656C203B
:10165000697320696D706C61757369626C652028AF
:10166000302D34292E0A00203A203E3E3E2067636A
:101670006F64655F4732390A0020206375727265B6
:101680006E745F706F736974696F6E3D00204240C5
:101690003A0020403A00202F0020423A00202F003C
:1016A00020543A004D31343520533C696E646578DE
:1016B0003E206F7574206F662072616E676520280A
:1016C000302D31290A004D6F76652058004D6F7618
:1016D000652059004D6F7665205A00457874727503
:1016E000646572004578747275646572004D6F763A
:1016F00065205A004D6F76652059004D6F76652044
:1017000058004D6F76652061786973004D6F76657E
:1017100020302E316D6D004D6F766520316D6D007E
:101720004D6F76652031306D6D005072657061725D
:101730006500526573746F7265206661696C7361D0
:101740006665004C6F6164206D656D6F7279005342
:10175000746F7265206D656D6F72790046696C619A
:101760006D656E74004D6F74696F6E0054656D70B9
:1017700065726174757265004D61696E00507265C5
:10178000686561742041425320636F6E6600507239
:10179000656865617420504C4120636F6E6600502F
:1017A00049442D44005049442D44005049442D499A
:1017B000005049442D49005049442D50005049449F
:1017C0002D500020022046616374002002204661F3
:1017D0006374002002204D6178002002204D617862
:1017E000002002204D696E002002204D696E004FDE
:1017F0006666004F6E20004175746F74656D7000F1
:1018000046616E2073706565640046616E2073707A
:101810006565640042656400426564004E6F7A7AD3
:101820006C65004E6F7A7A6C6500436F6E74726FF0
:101830006C0053746F7265206D656D6F7279004234
:10184000656400426564004E6F7A7A6C65004E6F85
:101850007A7A6C650046616E207370656564004637
:10186000616E2073706565640054656D70657261AA
:1018700074757265003C3C3C2067636F64655F4D26
:101880003636360A005D203D2000656E6473746F45
:10189000705F61646A5B003E3E3E2067636F646513
:1018A0005F4D3636360A00206F7574206F662072E1
:1018B000616E67650A00536572766F20003A2000FA
:1018C00020536572766F200020643A0020693A0048
:1018D00020703A0043290A0061626C656420286D1B
:1018E000696E2074656D702000436F6C64206578AC
:1018F0007472756465732061726520002364656687
:10190000696E65202044454641554C545F4B642028
:101910000023646566696E65202044454641554C48
:10192000545F4B69200023646566696E652020441E
:10193000454641554C545F4B70200050494420416E
:1019400075746F74756E652066696E697368656419
:10195000212050757420746865206C617374204B6D
:10196000702C204B6920616E64204B6420636F6E85
:101970007374616E74732066726F6D2062656C6F34
:101980007720696E746F20436F6E66696775726148
:1019900074696F6E2E680A00504944204175746F57
:1019A00074756E65206661696C6564212074696D6B
:1019B000656F75740A00504944204175746F7475E1
:1019C0006E65206661696C6564212054656D706583
:1019D00072617475726520746F6F20686967680A38
:1019E00000204B643A2000204B693A2000204B70C5
:1019F0003A20000A20436C617373696320504944A4
:101A0000200A002054753A2000204B753A2000200F
:101A10006D61783A2000206D696E3A200020643AAA
:101A2000200020626961733A200000002100240038
:101A300027002A002D0030003300010100000401BE
:101A400007010A01000020002300260029002C00C5
:101A50002F0032000001000003010601090100000F
:101A60000A0B02090C0D0E08070304010000000018
:101A70000000000000000000000000000000000066
:101A80000000000000000000000012111000000023
:101A90000000000000000000000000000000000046
:101AA00000000000203A20707265706172655F75F9
:101AB0006E696E746572706F6C617465645F6D6F72
:101AC00076655F746F5F64657374696E6174696F66
:101AD0006E0A00202064657374696E6174696F6EAC
:101AE0003D0020204D383531205A005A2D50726F5C
:101AF0006265204F666673657420286D6D293A0A09
:101B00000020204D3230302044300A0020204D3259
:101B100030302044002044697361626C65640A00BF
:101B200046696C616D656E742073657474696E6767
:101B3000733A0020440020490020204D33303120EA
:101B400050005049442073657474696E67733A0A93
:101B50000020460020420020480020204D3134352E
:101B60002053004D6174657269616C206865617411
:101B7000757020706172616D65746572733A0A00E8
:101B8000204300204200204100205300205200202A
:101B9000204D363635204C0044656C7461207365E9
:101BA0007474696E67733A204C3D646961676F6E47
:101BB000616C5F726F642C20523D72616469757351
:101BC0002C20533D7365676D656E74735F7065722D
:101BD0005F7365636F6E642C204142433D646961AD
:101BE000676F6E616C5F726F645F7472696D5F7452
:101BF0006F7765725F5B3132335D0A00205A0020D7
:101C0000590020204D363636205800456E647374D6
:101C10006F702061646A7573746D656E7420286DD1
:101C20006D293A0A00205A0020590020204D3230F8
:101C300036205800486F6D65206F666673657420A6
:101C4000286D6D290A00204500205A0020590020E7
:101C5000580020420020540020204D3230352053BF
:101C600000416476616E63656420766172696162C9
:101C70006C65733A20533D4D696E206665656472EC
:101C800061746520286D6D2F73292C20543D4D699A
:101C90006E2074726176656C20666565647261742D
:101CA0006520286D6D2F73292C20423D6D696E696A
:101CB0006D756D207365676D656E742074696D65F3
:101CC00020286D73292C20583D6D6178696D756DE4
:101CD000205859206A65726B20286D6D2F73292C4E
:101CE00020205A3D6D6178696D756D205A206A65B6
:101CF000726B20286D6D2F73292C2020453D6D615E
:101D000078696D756D2045206A65726B20286D6D50
:101D10002F73290A0020540020520020204D323019
:101D200034205000416363656C65726174696F6E45
:101D3000733A20503D7072696E74696E672C205240
:101D40003D7265747261637420616E6420543D74E9
:101D5000726176656C0A00204500205A0020590007
:101D600020204D3230312058004D6178696D756DFD
:101D700020416363656C65726174696F6E20286DC4
:101D80006D2F7332293A0A00204500205A0020594D
:101D90000020204D3230332058004D6178696D7538
:101DA0006D2066656564726174657320286D6D2FA2
:101DB00073293A0A00204500205A002059002020AB
:101DC0004D3932205800537465707320706572204D
:101DD000756E69743A0A007A5F6D61783A20007A0C
:101DE0005F6D696E3A2000795F6D61783A20007806
:101DF0005F6D61783A20005265706F7274696E672A
:101E000020656E6473746F70207374617475730AE7
:101E10000029002C20002C20002800466C6F770041
:101E2000466C6F770046616E20737065656400468E
:101E3000616E20737065656400426564004265648C
:101E4000004E6F7A7A6C65004E6F7A7A6C6500533B
:101E500070656564005370656564004D61696E006E
:101E60005072656865617420504C41204265640081
:101E70005072656865617420504C41005072657005
:101E8000617265005072656865617420414253203B
:101E90004265640050726568656174204142530078
:101EA00050726570617265004D343238004D3238C1
:101EB0003020503020533136300052657365742025
:101EC000424C546F756368004D32383020503020DA
:101ED0005331323000424C546F7563682053656C47
:101EE000662D5465737400436F6F6C646F776E007A
:101EF0005072656865617420414253005072656894
:101F000065617420504C41004D3834004469736160
:101F1000626C65207374657070657273004D6F76C6
:101F2000652061786973004732380A4732390047C3
:101F30003239004C6576656C2062656400536574C7
:101F400020686F6D65206F66667365747300473235
:101F500038004175746F20686F6D65004D61696E62
:101F60000043616C6962726174652043656E7465DB
:101F7000720043616C696272617465205A0043614A
:101F80006C69627261746520590043616C696272A8
:101F9000617465205800473238004175746F2068BD
:101FA0006F6D65004D61696E003C3C3C20646F5F65
:101FB000626C6F636B696E675F6D6F76655F746F80
:101FC0000A00203A207A206C6F776572206D6F7658
:101FD000650A00202063757272656E745F706F739E
:101FE0006974696F6E3D00203A207879206D6F76B4
:101FF000650A00202063757272656E745F706F737E
:102000006974696F6E3D00203A207A2072616973AD
:1020100065206D6F76650A00202063757272656EAB
:10202000745F706F736974696F6E3D00203A207A37
:102030006F6E6520626F72646572206D6F76650ADF
:1020400000202063757272656E745F706F736974BF
:10205000696F6E3D00203A2064616E676572207A78
:102060006F6E65206D6F76650A0020206375727251
:10207000656E745F706F736974696F6E3D00203AAE
:10208000207365745F64657374696E6174696F6EE3
:102090005F746F5F63757272656E740A00202064EE
:1020A000657374696E6174696F6E3D003E3E3E20DB
:1020B000646F5F626C6F636B696E675F6D6F76658F
:1020C0005F746F00203A2073657475705F666F727D
:1020D0005F656E6473746F705F6F725F70726F6252
:1020E000655F6D6F76650A00202063757272656E9C
:1020F000745F706F736974696F6E3D00203A20637E
:102100006C65616E5F75705F61667465725F656E48
:102110006473746F705F6F725F70726F62655F6D12
:102120006F76650A00202063757272656E745F7049
:102130006F736974696F6E3D0053544F505045443E
:102140002E20005072696E7465722073746F707007
:1021500065642064756520746F206572726F727398
:102160002E2046697820746865206572726F72202F
:10217000616E6420757365204D39393920746F2084
:10218000726573746172742E202854656D70657267
:1021900061747572652069732072657365742E2091
:1021A000536574206974206166746572207265736A
:1021B00074617274696E67290A006465706C6F7966
:1021C0003A2000203A207365745F70726F62655F19
:1021D0006465706C6F7965640A00202063757272A3
:1021E000656E745F706F736974696F6E3D00203A3D
:1021F000203C3C3C20646F5F70726F62655F6D6F66
:1022000076650A00202063757272656E745F706F68
:10221000736974696F6E3D007365745F626C746F8F
:102220007563685F6465706C6F7965642800203A37
:10223000203E3E3E20646F5F70726F62655F6D6F1F
:1022400076650A00202063757272656E745F706F28
:10225000736974696F6E3D00203A203C3C3C2072EB
:10226000756E5F7A5F70726F62650A002020637519
:102270007272656E745F706F736974696F6E3D0022
:10228000203A203E3E3E2072756E5F7A5F70726F1C
:1022900062650A00202063757272656E745F706FEC
:1022A000736974696F6E3D00646F5F70726F626511
:1022B0005F726169736528003C3C3C2070726F62FC
:1022C000655F70740A00205A3A200020593A2000B5
:1022D00042656420583A2000203A200A00202063FA
:1022E000757272656E745F706F736974696F6E3D3D
:1022F0000073746F77290A002C20002C20003E3ECA
:102300003E2070726F62655F70742800726573653D
:10231000745F6265645F6C6576656C0A0020286492
:102320006F6E65290A004578747261706F6C617414
:1023300065205B003C3C3C20646F5F686F6D696E9C
:10234000675F6D6F766528002C20002C20003E3ED4
:102350003E20646F5F686F6D696E675F6D6F766555
:10236000280020746F6F206C6F6E67206578747220
:102370007573696F6E2070726576656E7465640A38
:102380000020636F6C6420657874727573696F6E7A
:102390002070726576656E7465640A006275737983
:1023A0003A2070617573656420666F7220696E7083
:1023B00075740A00627573793A207061757365648B
:1023C00020666F7220757365720A00627573793AC0
:1023D0002070726F63657373696E670A004B494CB6
:1023E0004C45442E20004B494C4C45442E20005077
:1023F0006C65617365207265736574005052494E57
:102400005445522048414C544544005072696E7402
:1024100065722068616C7465642E206B696C6C2831
:10242000292063616C6C6564210A00656E717565B5
:102430007565696E672022005761726E696E673A32
:1024400020486F6D696E672042756D702044697613
:1024500069736F72203C20310A003C3C3C20686F5D
:102460006D65617869732800656E6473746F705F61
:1024700061646A3A0A00486F6D65203220536C6FC0
:10248000773A0A004D6F766520417761793A0A0004
:102490000000A0400000A0400000A04000006843F1
:1024A0000000684348219243486F6D652031204603
:1024B0006173743A0A000101013E3E3E20686F6D6F
:1024C0006561786973280025753A253032750025D5
:1024D0003032753A25303275002D2D2D00534400D1
:1024E0005A00590058000120000120004E6F20536F
:1024F000442063617264005072696E742066726F6A
:102500006D2053440053746F70207072696E7400B4
:10251000526573756D65207072696E7400506175D7
:102520007365207072696E7400436F6E74726F6CA5
:102530000044656C74612043616C69627261746906
:102540006F6E00507265706172650054756E650043
:102550004D323830205030205331363000526573C0
:10256000657420424C546F75636800496E666F2035
:1025700073637265656E0042696C6C204261692705
:10258000732044656C7461204F66662E00205A3AB1
:102590000020593A0020436F756E7420583A20008D
:1025A00020453A00205A3A0020593A00583A005340
:1025B000657474696E672054726176656C2041633E
:1025C00063656C65726174696F6E3A20005365745F
:1025D00074696E672052657472616374204163632D
:1025E000656C65726174696F6E3A2000536574742E
:1025F000696E67205072696E7420416363656C6513
:10260000726174696F6E3A200053657474696E6705
:10261000205072696E7420616E6420547261766518
:102620006C20416363656C65726174696F6E3A20FA
:10263000007C3C3E5E2B3D3F2F5B5D3B2C2A225CA9
:10264000001000C90210012C014001220170011884
:1026500001B0010E01F00104015002FA00B002F0D5
:10266000003003E600D003DC009004D2007005C8FF
:1026700000A006BE000008B400B009AA00D00BA05C
:1026800000600E960060118C000015820020197801
:1026900000C01D6E00A0226400B0275A00902C508C
:1026A0000000314600E0343C0010383200903A28F7
:1026B00000603C1E00A03D1400803E0A00203F0048
:1026C0000001021020200808102040102040800245
:1026D0000102010804020101020408102040808068
:1026E00040201008040201800402018040201008EC
:1026F00004020108040201010204081020408001C4
:102700000204081020408000002200250028002B31
:10271000002E003100340002010000050108010B09
:102720000105050505070508080808020202020A56
:102730000A08080404040401010101010101010364
:1027400003030303030303040707070C0C0C0C0C1F
:102750000C0C0C0202020206060606060606060B12
:102760000B0B0B0B0B0B0B024D3331004D38342090
:10277000582059205A204500534420726561642036
:102780006572726F720A00446F6E65207072696EB6
:1027900074696E672066696C650A004E6F204C692B
:1027A0006E65204E756D626572207769746820636E
:1027B0006865636B73756D2C204C617374204C6974
:1027C0006E653A20004B494C4C45442E2000535432
:1027D0004F505045442E20005072696E746572202F
:1027E00073746F707065642064756520746F206504
:1027F00072726F72732E2046697820746865206546
:1028000072726F7220616E6420757365204D393964
:102810003920746F20726573746172742E2028548D
:10282000656D70657261747572652069732072657B
:102830007365742E20536574206974206166746515
:10284000722072657374617274696E67290A004E32
:102850006F20436865636B73756D207769746820BA
:102860006C696E65206E756D6265722C204C6173AB
:1028700074204C696E653A2000636865636B7375FC
:102880006D206D69736D617463682C204C61737485
:10289000204C696E653A20004C696E65204E756D5E
:1028A000626572206973206E6F74204C61737420AE
:1028B0004C696E65204E756D6265722B312C204C13
:1028C000617374204C696E653A20004D31313000DF
:1028D00020496E76616C69642065787472756465F0
:1028E0007220000A20736F66745F656E6473746F84
:1028F000705F6D6178203D20000A20736F66745F01
:10290000656E6473746F705F6D696E203D20000AA0
:1029100020706F736974696F6E5F73686966742085
:102920003D200020617869733A0A20686F6D655F09
:102930006F6666736574203D2000466F722000004C
:1029400000E8420000E842482192430000E8C2004B
:1029500000E8C2000000004F666673657473206172
:1029600070706C696564004572723A20546F6F2014
:102970006661722100546F6F206661722066726F0B
:102980006D207265666572656E636520706F696E35
:10299000740A003A20007A5F6D61783A20007A5F0D
:1029A0006D696E3A20005A204F6666736574004563
:1029B00073746570732F6D6D004573746570732F3C
:1029C0006D6D005A73746570732F6D6D005A73745A
:1029D0006570732F6D6D005973746570732F6D6D15
:1029E000005973746570732F6D6D00587374657042
:1029F000732F6D6D005873746570732F6D6D00418A
:102A00002D74726176656C00412D74726176656C0F
:102A100000412D7265747261637400412D7265749A
:102A20007261637400416D6178204500416D617889
:102A3000204500416D6178205A00416D6178205A2F
:102A400000416D6178205900416D61782059004145
:102A50006D6178205800416D61782058005654729D
:102A60006176206D696E005654726176206D696ED4
:102A700000566D696E00566D696E00566D61782066
:102A80004500566D6178204500566D6178205A00EA
:102A9000566D6178205A00566D6178205900566D48
:102AA0006178205900566D6178205800566D617824
:102AB00020580056652D6A65726B0056652D6A6553
:102AC000726B00567A2D6A65726B00567A2D6A65B4
:102AD000726B0056792D6A65726B0056792D6A65A6
:102AE000726B0056782D6A65726B0056782D6A6598
:102AF000726B00416363656C00416363656C005AEF
:102B0000204F6666736574005A204F66667365745D
:102B100000436F6E74726F6C0020746F6F206C6F67
:102B20006E6720657874727573696F6E2070726558
:102B300076656E7465640A0020636F6C6420657846
:102B400074727573696F6E2070726576656E7465E8
:102B5000640A0046696C2E204469612E0046696C47
:102B60002E204469612E004F6666004F6E2000459E
:102B700020696E206D6D3300436F6E74726F6C0050
:102B800043616E6E6F7420656E746572207375623A
:102B90006469723A2000052E2E004D61696E006254
:102BA00065640A002C2073797374656D2073746FEB
:102BB0007070656421204865617465725F49443AAC
:102BC00020004B494C4C45442E2000202D20496EBE
:102BD00076616C6964206578747275646572206EC4
:102BE000756D62657220210A004572723A204D4966
:102BF0004E54454D5020424544004572723A204D96
:102C0000494E54454D50004D494E54454D50207449
:102C10007269676765726564004572723A204D415A
:102C20005854454D5020424544004572723A204D5B
:102C3000415854454D50004D415854454D50207415
:102C40007269676765726564000000211042206345
:102C5000308440A550C660E770088129914AA16B75
:102C6000B18CC1ADD1CEE1EFF1311210027332520D
:102C700022B5529442F772D662399318837BB35AC5
:102C8000A3BDD39CC3FFF3DEE362244334200401DD
:102C900014E664C774A44485546AA54BB528850915
:102CA00095EEE5CFF5ACC58DD553367226111630AD
:102CB00006D776F6669556B4465BB77AA719973865
:102CC00087DFF7FEE79DD7BCC7C448E5588668A7ED
:102CD000784008611802282338CCC9EDD98EE9AFB5
:102CE000F9488969990AA92BB9F55AD44AB77A964D
:102CF0006A711A500A333A122AFDDBDCCBBFFB9E05
:102D0000EB799B588B3BBB1AABA66C877CE44CC51C
:102D10005C222C033C600C411CAEED8FFDECCDCD54
:102D2000DD2AAD0BBD688D499D977EB66ED55EF4EC
:102D30004E133E322E511E700E9FFFBEEFDDDFFCA4
:102D4000CF1BBF3AAF599F788F8891A981CAB1EB49
:102D5000A10CD12DC14EF16FE18010A100C230E372
:102D6000200450254046706760B9839893FBA3DA2E
:102D7000B33DC31CD37FE35EF3B1029012F322D2C2
:102D8000323542145277625672EAB5CBA5A89589BE
:102D9000856EF54FE52CD50DC5E234C324A0148112
:102DA000046674476424540544DBA7FAB79987B8CE
:102DB000975FE77EF71DC73CD7D326F2369106B062
:102DC0001657667676154634564CD96DC90EF92FCE
:102DD000E9C899E9898AB9ABA944586548067827B2
:102DE00068C018E1088238A3287DCB5CDB3FEB1E6E
:102DF000FBF98BD89BBBAB9ABB754A545A376A1602
:102E00007AF10AD01AB32A923A2EFD0FED6CDD4DFD
:102E1000CDAABD8BADE89DC98D267C076C645C4551
:102E20004CA23C832CE01CC10C1FEF3EFF5DCF7C0D
:102E3000DF9BAFBABFD98FF89F176E367E554E74A1
:102E40005E932EB23ED10EF01E526573656E643AEB
:102E500020006F6B004E414E494E495459494E4631
:102E6000CDCCCC3D0AD7233C17B7D13877CC2B3209
:102E70009595E6241FB14F0A000020410000C8428A
:102E800000401C4620BCBE4CCA1B0E5AAEC59D74E9
:102E9000EF01F10111241FBECFEFD1E2DEBFCDBFA4
:102EA00000E00CBF14E0A0E0B2E0E8E1FDE302E0E6
:102EB0000BBF02C007900D92A63AB107D9F724E1E3
:102EC000A6EAB4E001C01D92A13DB207E1F717E107
:102ED000C9E4D7E100E006C021970109802FFE0177
:102EE0000F949012C834D10780E00807A9F70F9417
:102EF00099040D947A1E0C9400002F923F924F92E9
:102F00005F926F927F928F929F92AF92BF92CF9279
:102F1000DF92EF92FF920F931F93CF93DF93CDB782
:102F2000DEB7C25AD1090FB6F894DEBF0FBECDBFCF
:102F3000E091960E20E6E29FF00111248F010351EB
:102F4000194F1093B4040093B30480915E0E80FF78
:102F500024C0ECE4FCE08491882369F09DE4E92E30
:102F60009CE0F92E0E944A87F7018491FFEFEF1A47
:102F7000FF0A8111F7CFD8018C91882359F078018D
:102F80002FEFE21AF20A0E944A87D7018D917D0144
:102F90008111F9CF8AE00E944A87F801808180324E
:102FA00009F071C131962E2F9F2F81918032D9F374
:102FB000E22FF92FF093B404E093B3048E3409F4B4
:102FC0009DC00091B3041091B4046AE270E0C8019E
:102FD0000F94C515009749F0FC013196829180321B
:102FE00011F08A3211F41082F9CF98012F5F3F4F10
:102FF000D8016C9111968C91803231F4F80132969F
:103000009F0181918032E1F380538A3008F439C006
:10301000ECE4FCE08491882369F02DE4E22E2CE0BE
:10302000F22E0E944A87F7018491FFEFEF1AFF0A00
:103030008111F7CFB8018AE998E00E945F8882E2A7
:103040000E944A878AE00E944A870F944204CE5524
:10305000DF4F0FB6F894DEBF0FBECDBFDF91CF912B
:103060001F910F91FF90EF90DF90CF90BF90AF90A6
:103070009F908F907F906F905F904F903F902F9098
:103080000895F901919120E030E0A901440F551F06
:10309000220F331F220F331F220F331F240F351F20
:1030A000290F311D97FD3A95205331097F019191E8
:1030B00080ED890F8A3048F3903249F4CF01A9019D
:1030C000FC01019630813032D9F39A017F01F092F0
:1030D000B204E092B10481E090E09093700E80938E
:1030E0006F0E6D34F1F1643509F477C0673409F47B
:1030F0006AC01092700E10926F0E8ACF818190ED8F
:10310000980F9A3050F58F010E5F1F4F1093B40443
:103110000093B304828190ED980F9A3070F4339647
:103120003E2F2F2F819190ED980F9A30C8F3032FE7
:10313000122F1093B4040093B304803209F045CFEA
:10314000C8010196FC01019620812032D9F38F013C
:10315000F093B404E093B30438CF8D3209F031CF4B
:10316000D2CF2337310511F40C940E3308F08DC003
:103170002C34310511F40C94F43208F4D1C0293602
:10318000310511F40C94433210F40C94EC252E36D6
:10319000310511F40C94F52F10F00C941F272B36E9
:1031A000310511F40C94F03210F40C94EC322C36FE
:1031B000310511F00C94B329109254021092700E44
:1031C00010926F0E42CF2D353105C0F7F9018827D7
:1031D000EE58FF4F8F4F0D949012922E80915E0EFD
:1031E00085FF02C00C9485249092490EECE4FCE02B
:1031F0008491882361F00DE41CE00E944A87F80165
:1032000084910F5F1F4F8111F8CF9090490E692D67
:1032100070E081E398E00E9430888AE00E944A874B
:1032200080915E0E85FFCACFA090C804B090C904FB
:10323000C090CA04D090CB04E090C404F090C504C0
:103240000091C6041091C7042091C0043091C104BC
:103250004091C2045091C30460E578E08AE598E0AB
:103260000E94AB87E3E4F8E08491882309F4A6CFB9
:1032700004E418E00E944A87F80184910F5F1F4F11
:103280008111F8CF9BCFF80199CE2C3241E0340761
:1032900011F40C945F2D00F5293C310511F40C94C8
:1032A000213010F40C94B124233D310511F40C9419
:1032B0007A2E10F00C9410272C3C310511F40C944C
:1032C000632D10F40C94ED2C2D3C310511F00C9471
:1032D000E42C0E94ADB472CF2C3A91E0390711F47E
:1032E0000C94E83210F40C94D3252939E2E03E071F
:1032F00011F40C94672D10F00C94C926253F41E081
:10330000340711F40C94D13110F40C94F62B263FB1
:1033100091E0390711F00C94AA290E94F0364ECFA3
:103320002831310511F40C94162F10F40C94022658
:103330002E31310511F40C941D3110F00C945B27E3
:103340002A31310511F40C94BE3210F40C94BA32C7
:103350002B31310511F00C949A2B8091B80F81110B
:103360000C946E33EAEFF5E08491882309F426CFBC
:103370000BEF15E00E944A87F80184910F5F1F4F01
:103380008111F8CF1BCF65E470E0C7010F94C5151C
:103390009093C8138093C71333243394892B11F46B
:1033A0000C940829C70111ED812E13E0912E01E341
:1033B000A02E0EE0B02E20ECC22E24E0D22E00E093
:1033C00010E0512C35E4432E7801D4016D914D016C
:1033D000062E000C770B0F94C5158C019093C81323
:1033E0008093C713009709F48AC0F60120813181C8
:1033F0004281538165E470E0C156DF4F2883CF5985
:10340000D040C056DF4F3883C05AD040CF55DF4F31
:103410004883C15AD040CE55DF4F5883C25AD0405E
:103420000F94C5153C01C156DF4F2881CF59D040BC
:10343000C056DF4F3881C05AD040CF55DF4F48814A
:10344000C15AD040CE55DF4F5881C25AD040009764
:1034500011F40C94E026DC011C9260E070E0C801DD
:103460000196C156DF4F2883CF59D040C056DF4F59
:103470003883C05AD040CF55DF4F4883C15AD0401F
:10348000CE55DF4F5883C25AD0400F94FD15F3013B
:103490004082C156DF4F2881CF59D040C056DF4F00
:1034A0003881C05AD040CF55DF4F4881C15AD040F3
:1034B000CE55DF4F5881C25AD040D6016D937D93CF
:1034C0008D939C931397B3E0EB16F10411F40C94D5
:1034D00096250F9498129B01AC01F50160817181D2
:1034E000828193810F949912D5016D937D938D9371
:1034F0009C931397C7010E9423C855245394BFEF90
:10350000EB1AFB0AE4E0AE0EB11CF4E0CF0ED11CC6
:1035100024E0E216F10411F40C9496258091B10494
:103520009091B20452CF80915E0E85FF11C0E0E40D
:10353000F5E08491882351F001E415E00E944A8768
:10354000F80184910F5F1F4F8111F8CF0E94EB604B
:103550000E9426F70E94EC9A0E94799B80915E0E51
:1035600085FD02C00C94D127E7E2F5E08491882321
:1035700011F40C94BE3508E215E00E944A87F80168
:1035800084910F5F1F4F8111F8CF80915E0E91E003
:103590009093200285FD02C00C94E42B70EC872EE2
:1035A00074E0972EA090C804B090C904C090CA04DB
:1035B000D090CB04E090C404F090C5040091C60400
:1035C0001091C7042091C0043091C1044091C204FD
:1035D0005091C30461EF74E084E095E00E94AB87F2
:1035E00080915E0E90E1D4011D929A95E9F785FDD8
:1035F00002C00C94C533A12CB12C65018601750164
:10360000A601950164E374E08BE494E00E94AB872B
:103610008091C8049091C904A091CA04B091CB04D0
:103620004091C4045091C5046091C6047091C704D0
:103630000091C0041091C1042091C2043091C304D0
:1036400023960CAF1DAF2EAF3FAF239727964CAFFD
:103650005DAF6EAF7FAF27972B968CAF9DAFAEAFB0
:10366000BFAF2B972CEC34E0AE01495B5F4FBE013E
:103670006D5B7F4FCE01CF960E94FEFA88E491E207
:10368000A7E9B3E48093C8049093C904A093CA0443
:10369000B093CB048093C4049093C504A093C60454
:1036A000B093C7048093C0049093C104A093C20454
:1036B000B093C30440E050E060E772E440934502F9
:1036C000509346026093470270934802C090490E9F
:1036D00089839A83AB83BC8388A399A3AAA3BBA342
:1036E0008BAF9CAFADAFBEAF7A018B012CEC34E059
:1036F000AE01455C5F4FBE01605E7F4FCE0101961B
:103700000E949EDA0E9426F710926F0880E090E0F7
:103710000E946FA581E090E00E946FA582E090E09A
:103720000E946FA580915E0E41ED242E43E0342E61
:103730005DE3652E5EE0752EE8EBFDE06D96FFAF74
:10374000EEAF6D972BE83EE065963FAF2EAF6597E5
:1037500065EA462E64E0562E41E35EE061965FAF77
:103760004EAF6197A0ECB4E06996BFAFAEAF69977A
:10377000812C912C807281110C941B266D96AEAD1C
:10378000BFAD6D97E1E0ED936D96BFAFAEAF6D97B6
:103790006596AEADBFAD6597ED936596BFAFAEAF25
:1037A000659761960EAD1FAD6197D8011D921D9270
:1037B0001D921D926196BFAFAEAF6197C4010E948A
:1037C00023C8F2016591759185919491F30120814F
:1037D0003181428153810F949912D8012D913D91ED
:1037E0004D915C910F9499126996EEADFFAD69977A
:1037F00061937193819391936996FFAFEEAF69974F
:1038000090915E0E892F807295FF45C0D101BC91C9
:10381000A096BFAFA0976B2F86E994E00E944A88DC
:10382000F301408151816281738181E994E00E94BA
:103830008D878AE00E944A87A090C804B090C9048E
:10384000C090CA04D090CB04E090C404F090C504AA
:103850000091C6041091C7042091C0043091C104A6
:103860004091C2045091C30468E774E08DE794E08E
:103870000E94AB87A0966FADA0978FE594E00E9461
:103880004A8889E20E944A878AE00E944A8790918A
:103890005E0E892F8072FFEF8F1A9F0A2FEF221A78
:1038A000320A34E0630E711C44E0440E511C53E0B4
:1038B0008516910409F05FCF8823F1F0A090C80429
:1038C000B090C904C090CA04D090CB04E090C40466
:1038D000F090C5040091C6041091C7042091C00463
:1038E0003091C1044091C2045091C30461E675E077
:1038F00082E895E00E94AB870E94F14680915E0EBF
:1039000085FF1EC0A090C804B090C904C090CA042E
:10391000D090CB04E090C404F090C5040091C6049C
:103920001091C7042091C0043091C1044091C20499
:103930005091C3046AEC74E08DED94E00E94AB8773
:103940008091AB04809320022F961CAE1DAE1EAE5C
:103950001FAE2F979E01255B3F4F40E052E064EC85
:1039600074E080EC94E00E94D49B0E94249B8091A0
:103970005E0E85FF0FC0E8E1F5E08491882351F0E9
:1039800009E115E00E944A87F80184910F5F1F4FFB
:103990008111F8CF0E9434B811CC60E570E0C70106
:1039A0000F94C5159093C8138093C713009711F413
:1039B0000C9415284AE050E060E070E001960F9406
:1039C0008B186B017C018091B1049091B20463E586
:1039D00070E00F94C5158C019093C8138093C713A2
:1039E0000097F1F065E470E00F94C5157C01009735
:1039F00011F40C94572DDC011C9260E070E0C801BA
:103A000001960F94FD1525E4F701208320E030E0B6
:103A10004AE754E40F94A71A0F94FC136B017C013E
:103A20000E9426F70E94AC3C60934A0E70934B0EA6
:103A300080934C0E90934D0EC60ED71EE81EF91EB5
:103A400080915502811104C00C94D9280E9466A768
:103A50000E94AC3CDC01CB018C199D09AE09BF0969
:103A6000B7FDF4CFABCB8091B302882309F4A6CB8A
:103A700011E02230310509F010E00E94CF98C0908B
:103A8000B104D090B20462E570E0C6010F94C51590
:103A90007C019093C8138093C713009711F40C9482
:103AA000FE2C65E470E00F94C5155C01009711F4DD
:103AB0000C94F734FC01108260E070E0C7010196BD
:103AC0000F94FD156B017C0185E4D5018C93209149
:103AD000C0043091C1044091C2045091C304639664
:103AE0002CAF3DAF4EAF5FAF63978090C404909012
:103AF000C504A090C604B090C70480914E0E90916A
:103B00004F0EA091500EB091510E67968CAF9DAFA5
:103B1000AEAFBFAF67972091520E3091530E4091D8
:103B2000540E5091550E6B962CAF3DAF4EAF5FAF1C
:103B30006B9720E030E0A901C701B6010F94421A4B
:103B4000882311F40C94633267962CAD3DAD4EADD5
:103B50005FAD679763966CAD7DAD8EAD9FAD63979E
:103B60000F94421A81110EC06B962CAD3DAD4EAD37
:103B70005FAD6B97C501B4010F94421A882311F40D
:103B80000C94633220E030E0A901C701B6010F9424
:103B9000421A881F8827881F181711F40C945E3367
:103BA00020E030E040E85FEBAB962CAF3DAF4EAF8E
:103BB0005FAFAB9763962CAD3DAD4EAD5FAD6397F8
:103BC00067966CAD7DAD8EAD9FAD67970F949812E3
:103BD000A3966CAF7DAF8EAF9FAFA397A501940165
:103BE0006B966CAD7DAD8EAD9FAD6B970F949812BB
:103BF000A7966CAF7DAF8EAF9FAFA797A3962CAD66
:103C00003DAD4EAD5FADA397CA01B9010F94A71AA0
:103C10002B013C01A7962CAD3DAD4EAD5FADA797F6
:103C2000CA01B9010F94A71A9B01AC01C301B201EB
:103C30000F9499120F942A156F966CAF7DAF8EAFCB
:103C40009FAF6F9720E030E040E05FE30F94A71A4A
:103C50002B013C01A7019601C701B6010F94A71AD9
:103C60006B017C01A3019201C301B2010F94A71A59
:103C70009B01AC01C701B6010F9498120F942A154D
:103C8000AB962CAD3DAD4EAD5FADAB970F94A71A83
:103C90002B013C0167962CAD3DAD4EAD5FAD6797F6
:103CA00063966CAD7DAD8EAD9FAD63970F94991209
:103CB00020E030E040E05FE30F94A71A6B017C0145
:103CC000A7966CAD7DAD8EAD9FADA79790586F96C2
:103CD0002CAD3DAD4EAD5FAD6F970F948513A30135
:103CE00092010F94A71A9B01AC01C701B6010F9472
:103CF000991263962CAD3DAD4EAD5FAD63970F94B9
:103D000098126B017C016B962CAD3DAD4EAD5FAD55
:103D10006B97C501B4010F94991220E030E040E0A8
:103D20005FE30F94A71A63966CAF7DAF8EAF9FAF22
:103D300063976F962CAD3DAD4EAD5FAD6F97A3967B
:103D40006CAD7DAD8EAD9FADA3970F948513A30190
:103D500092010F94A71A9B01AC0163966CAD7DADE7
:103D60008EAD9FAD63970F949912A50194010F94A6
:103D700098122B013C0120E030E0A901C701B601F7
:103D80000F94421A81110BC020E030E0A901C30159
:103D9000B2010F94421A882311F40C946332A701E4
:103DA0009601C701B6010F94A71A4B015C01A3014C
:103DB0009201C301B2010F94A71A9B01AC01C50186
:103DC000B4010F9499120F942A15EB966CAF7DAF46
:103DD0008EAF9FAFEB972091C0043091C10440910A
:103DE000C2045091C30467962CAF3DAF4EAF5FAF96
:103DF0006797A701960167966CAD7DAD8EAD9FADBF
:103E000067970F949912C158DF4F688379838A832B
:103E10009B83CF57D0408091C4049091C504A0915A
:103E2000C604B091C7046F968CAF9DAFAEAFBFAF65
:103E30006F97A3019201BC01CD010F949912CD5748
:103E4000DF4F688379838A839B83C358D040209156
:103E5000C8043091C9044091CA045091CB04A39680
:103E60002CAF3DAF4EAF5FAFA3976091560E7091F0
:103E7000570E8091580E9091590E0F9498126B9690
:103E80006CAF7DAF8EAF9FAF6B9780915A0E9091C4
:103E90005B0EA0915C0EB0915D0EEF968CAF9DAF66
:103EA000AEAFBFAFEF972091CC043091CD044091DD
:103EB000CE045091CF04A7962CAF3DAF4EAF5FAF6D
:103EC000A797D701C601B05863968CAF9DAFAEAF30
:103ED000BFAF6397A30192015058E7962CAF3DAF57
:103EE0004EAF5FAFE79780914E0E90914F0EA0912D
:103EF000500EB091510EAB968CAF9DAFAEAFBFAF31
:103F0000AB97C158DF4F288139814A815B81CF57F8
:103F1000D040BC01CD010F949812E3966CAF7DAFF9
:103F20008EAF9FAFE3972091520E3091530E409188
:103F3000540E5091550EAF962CAF3DAF4EAF5FAFC4
:103F4000AF97CD57DF4F288139814A815B81C358B4
:103F5000D040AF966CAD7DAD8EAD9FADAF970F9459
:103F600098126B017C01E3962CAD3DAD4EAD5FAD7B
:103F7000E39763966CAD7DAD8EAD9FAD63970F9467
:103F8000A71A4B015C01A7019601E7966CAD7DADC8
:103F90008EAD9FADE7970F94A71A9B01AC01C501A9
:103FA000B4010F9499124B015C01A701960163962D
:103FB0006CAD7DAD8EAD9FAD63970F94A71A6B016D
:103FC0007C01E3962CAD3DAD4EAD5FADE397E7963A
:103FD0006CAD7DAD8EAD9FADE7970F94A71A9B0199
:103FE000AC01C701B6010F949812A50194010F947A
:103FF00017136B017C0120E030E0A9010F94421AF5
:1040000087FF02C00C942133112351F02BED3FE0C8
:1040100049EC50E4C701B6010F9498126B017C0182
:1040200020E030E0A901C701B6010F94421A8111C6
:104030002AC0AB962CAD3DAD4EAD5FADAB9767964C
:104040006CAD7DAD8EAD9FAD67970F94421A811117
:104050001AC0AF962CAD3DAD4EAD5FADAF976F962C
:104060006CAD7DAD8EAD9FAD6F970F94421A8111EF
:104070000AC02BED3FE049EC50E4C701B6010F94B4
:1040800099126B017C01A7019601EB966CAD7DAD99
:104090008EAD9FADEB970F94A71A4B015C016B9609
:1040A0002CAD3DAD4EAD5FAD6B97CA01B9010F941C
:1040B000A71A67966CAF7DAF8EAF9FAF6797A501CC
:1040C0009401C501B4010F94A71A67962CAD3DADBC
:1040D0004EAD5FAD67970F9499120F942A154B015F
:1040E0005C012FE632E143E85AE30F94421A87FF5E
:1040F00002C00C947829C501B4010F942B140F94BD
:10410000FC13A9967FAF6EAFA9976115710511F4E5
:104110000C940F3180E090E00F94461A4B015C0143
:10412000A5019401C701B6010F94851367966CAF82
:104130007DAF8EAF9FAF6797A50194016B966CAD75
:104140007DAD8EAD9FAD6B970F948513C956DF4F34
:10415000688379838A839B83C759D040A7962CAD07
:104160003DAD4EAD5FADA797EF966CAD7DAD8EAD1D
:104170009FADEF970F949812A50194010F948513AA
:10418000C556DF4F688379838A839B83CB59D040A0
:1041900067962CAD3DAD4EAD5FAD6797CA01B901D5
:1041A0000F94A71A20E030E040E05FE30F94A71AD5
:1041B0009B01AC0160E070E080E89FE30F949812EF
:1041C000C957DF4F688379838A839B83C758D04060
:1041D000A3962CAD3DAD4EAD5FADA39729873A8731
:1041E0004B875C87A7968CAD9DADAEADBFADA79755
:1041F0008D879E87AF87B88B609143027091440290
:10420000072E000C880B990B0F94481A2091450239
:104210003091460240914702509148020F94A71AEC
:104220002AE037ED43E25CE30F94A71AC557DF4F4E
:10423000688379838A839B83CB58D0400E94AC3CAF
:104240009B01AC0128533F4F4F4F5F4FC157DF4F8A
:10425000288339834A835B83CF58D040A9964EADDB
:104260005FADA9974130510509F4E4C76096FFADF1
:1042700060976896FFAF689761962FAD61976C96CF
:104280002FAF6C9762963FAD6297A0963FAFA09715
:1042900063964FAD6397A4964FAFA49781E090E0EB
:1042A000AD969FAF8EAFAD97E0961FAEE097DE0163
:1042B00090961D01FE01B896ED96FFAFEEAFED971B
:1042C0009E012C5D3F4FE9963FAF2EAFE997E796F1
:1042D0008CAC9DACAEACBFACE797CD56DF4F4882FF
:1042E00059826A827B82C359D04001C1A5019401E1
:1042F000C957DF4F688179818A819B81C758D04037
:104300000F94A71A6B017C0168962FAD68976C9685
:104310003FAD6C97A0964FADA097A4965FADA497C4
:1043200067966CAD7DAD8EAD9FAD67970F94A71A64
:10433000A70196010F949912162F072F782E692E38
:1043400068962FAD68976C963FAD6C97A0964FAD71
:10435000A097A4965FADA497C957DF4F6881798174
:104360008A819B81C758D0400F94A71A6B017C01AA
:10437000A501940167966CAD7DAD8EAD9FAD67973D
:104380000F94A71A9B01AC01C701B6010F949812B4
:1043900068966FAF68976C967FAF6C97A0968FAF5B
:1043A000A097A4969FAFA497812E902EA72CB62CF1
:1043B00068962FAD68976C963FAD6C97A0964FAD01
:1043C000A097A4965FADA497C158DF4F688179810B
:1043D0008A819B81CF57D0400F9499126B017C0149
:1043E00069837A838B839C83A5019401CD57DF4F2A
:1043F000688179818A819B81C358D0400F9499123A
:10440000E7966CAF7DAF8EAF9FAFE7976D837E83EE
:104410008F83988729853A854B855C85C956DF4F00
:10442000688179818A819B81C759D0400F94991204
:104430002B013C0169877A878B879C87C556DF4FA4
:10444000288139814A815B81CB59D0406D857E8539
:104450008F8598890F9499126D877E878F87988BA7
:104460001091490EC8A2D9A2EAA2FBA2E7968CAD90
:104470009DADAEADBFADE7978CA39DA3AEA3BFA38B
:1044800048A659A66AA67BA6ED964EAD5FADED9700
:10449000E9966EAD7FADE997C1010E9497E8C10131
:1044A0000E94C6FFC12EC557DF4FE880F9800A8100
:1044B0001B81CB58D0409E01235F3F4F48ED54E015
:1044C00064ED74E080ED94E00E949EDAAD96AEADAE
:1044D000BFADAD971196AD96BFAFAEAFAD97A996F4
:1044E000EEADFFADA997AE17BF0709F4B2C60E94A3
:1044F000C5F40E94AC3CDC01CB01C157DF4F2881E1
:1045000039814A815B81CF58D040821B930BA40B29
:10451000B50BB7FD12C00E94AC3C9B01AC01285307
:104520003F4F4F4F5F4FC157DF4F288339834A8337
:104530005B83CF58D0400E9466A7E0963FADE097DE
:104540003F5FE0963FAFE09739310CF4CFCEAD96A8
:104550004EAD5FADAD97BA0180E090E00F94461A82
:104560009B01AC0167966CAD7DAD8EAD9FAD67973D
:104570000F94A71A4B015C010F9482136B017C010D
:10458000C501B4010F941F154B015C01A7019601F1
:1045900063966CAD7DAD8EAD9FAD63970F94A71AFA
:1045A0002B013C01CD56DF4F288139814A815B8147
:1045B000C359D040C501B4010F94A71A9B01AC01A7
:1045C000C301B2010F94991268966FAF68976C9609
:1045D0007FAF6C97A0968FAFA097A4969FAFA4973C
:1045E000A501940163966CAD7DAD8EAD9FAD6397D3
:1045F0000F94A71A4B015C01CD56DF4F28813981FA
:104600004A815B81C359D040C701B6010F94A71AF4
:104610009B01AC01C501B4010F9498124B015C01E0
:10462000E0961FAEE097C4CE8091B302882311F4C8
:104630000C94DE180E94CF980E9450AA0C94DE18A9
:1046400081E08093B0040C94DE181092B0040C94B6
:10465000DE1868E570E0C7010F94C5158C019093D2
:10466000C8138093C713009709F4F4C465E470E09D
:104670000F94C5157C01009711F40C943B32DC01BA
:104680001C9260E070E0C80101960F94FD1525E4CE
:10469000F70120833091B1042091B2046B018C01A9
:1046A000A601B8014BAF5CAF6DAF7EAF69E570E0BE
:1046B000832F922F0F94C5157C019093C81380937C
:1046C000C713009709F4B7C465E470E00F94C515EB
:1046D0008C01009711F40C942F32DC011C9260E0E5
:1046E00070E0C70101960F94FD1525E4F8012083C1
:1046F000CBACDCAC0DAD1EAD4B015C0188A299A228
:10470000AAA2BBA24601580189829A82AB82BC82CE
:104710008B019C010D831E832F83388720E030E0BE
:10472000A9016091450E7091460E8091470E9091BF
:10473000480E0F9499122091390E30913A0E409103
:104740003B0E50913C0E0F94991269877A878B87A4
:104750009C87CE0101960E940181882311F40C945C
:10476000DE1863E570E08091B1049091B2040F947B
:10477000C515FC019093C8138093C713892B09F1C9
:104780009181903211F00C943334DF01129621E0C4
:1047900030E02F5F3F4F9D919032D9F39D3211F45D
:1047A0000C94F62C9B3211F40C94F62C9E3229F4C6
:1047B000DF01A20FB31F11969C9190539A3008F419
:1047C00078C011E080913313882331F010923313B5
:1047D00082E090E00E94DCFB0E94799B21E030E0C7
:1047E000412FBE01605E7F4FCE01CB960E945C9F41
:1047F0006B017C01E9E5F5E08491882351F00AE53D
:1048000015E00E944A87F80184910F5F1F4F8111C4
:10481000F8CF27E137EB41ED58E36BAD7CAD8DADC3
:104820009EAD0F94991242E00E94BC86E4E5F5E04B
:104830008491882351F005E515E00E944A87F8012C
:1048400084910F5F1F4F8111F8CF27E137EB41EDC6
:1048500058E368A179A18AA19BA10F94991242E023
:104860000E94BC86EFE4F5E08491882351F000E5D6
:1048700015E00E944A87F80184910F5F1F4F811154
:10488000F8CF27E137EB41ED58E3C701B6010F94AC
:10489000991242E00E94BC868AE00E944A870E94E8
:1048A000249B0E9434B80C94DE180E94F5610C948D
:1048B000DE184AE050E060E070E0CF0101960F940E
:1048C000631797FD20C08091C7139091C8134AE0E9
:1048D00050E060E070E001960F9463176F3F710540
:1048E0008105910511F00CF06CCF8091C713909168
:1048F000C8134AE050E060E070E001960F9463173F
:1049000011E061115FCF10E05DCFB90177278DE82D
:1049100098E00E94308889E20E944A878AE00E94DB
:104920004A87A090C804B090C904C090CA04D0902F
:10493000CB04E090C404F090C5040091C60410912B
:10494000C7042091C0043091C1044091C204509129
:10495000C3046EE678E089E798E00E94AB870C9488
:10496000F4182937310511F40C941B3008F450C3A6
:104970002139310511F40C94532D08F4F0C62E3B67
:10498000310509F0E3C680915E0E83FF02C00C94EE
:10499000DE1880E297E00E94DDC70091B10410911B
:1049A000B20463E570E0C8010F94C5159093C81375
:1049B0008093C713A1E06896AFAF6897892B11F475
:1049C0000C9407350E9468CA0F94F6137093250E55
:1049D0006093240E0E9468CA20E030E040EA50E470
:1049E0000F94E114181614F40E94C18081E08093A2
:1049F00054021092700E10926F0E8091490E8093A7
:104A0000AA04C090240ED090250E67961CAE1DAE51
:104A10001EAE1FAE6797212C312C210160961FAE70
:104A200060976C961FAE6C97BCE3A096BFAFA09743
:104A3000ECE1A496EFAFA497F6E4A896FFAFA89791
:104A4000612C712C40E8842E5FEB952E0D2C000C10
:104A5000EE08FF08C701B6010F94481A162F072F5A
:104A6000B82EA92E9301A4010F94421A882309F4A9
:104A7000F0C020918E0E30918F0E4091900E50918B
:104A8000910E612F702F8B2D9A2D0F94421A881F33
:104A90008827881F60968FAF609768962FAD6897BC
:104AA000222309F4DAC0811191C20E94AC3C6B014F
:104AB0007C01DC01CB0182199309A409B509B7FF78
:104AC000D8C00E9466A70E94AC3C60934A0E7093C7
:104AD0004B0E80934C0E90934D0E90908E0E8090C6
:104AE0008F0E6090900E7090910E809154028823EA
:104AF00009F46CC2C090240ED090250E0D2C000C31
:104B0000EE08FF08C701B6010F94481A292D382D69
:104B1000A3010F94E11418160CF058C2612E702EE8
:104B20008B2C9A2C60961FAE609794CF5110ECC3DB
:104B3000332011F40C94CA1CC090CC04D090CD0446
:104B4000E090CE04F090CF042091E2123091E31275
:104B50004091E4125091E512C701B6010F94A71AD3
:104B60000F94EC146093E10E7093E20E8093E30EC9
:104B70009093E40EC701B6010F94F6132FB7F89483
:104B800060936D1370936E1380936F1390937013F3
:104B90002FBF1092D10E1092D20E1092D30E1092FF
:104BA000D40E0C94CA1C2039B1E03B0709F477C736
:104BB00008F422C2223981E0380711F40C94542FF2
:104BC00010F40C944F2F2A39A1E03A0709F029C3B9
:104BD0000E9402D40C94DE182335310509F45AC71B
:104BE00008F400C22535310511F40C949E3110F4FF
:104BF0000C949A312C35310509F030C60E9408B961
:104C00000C94DE182231310511F40C949A3108F419
:104C100034C22531310511F40C942B3210F40C946C
:104C2000D4312631310509F0D1C21092B70F10925C
:104C3000B80F0C94DE18F101608181EB94E00E94C2
:104C40004A8889E20E944A878AE00E944A870C9437
:104C5000BE1B162D072DB82CA92C0E94AC3C6B0155
:104C60007C01DC01CB0182199309A409B509B7FDC8
:104C70000DC01601270138EE230E33E0331E411C10
:104C8000511C0E9451608AE00E944A870E9466A7D8
:104C90000E94AC3C60934A0E70934B0E80934C0E76
:104CA00090934D0E90908E0E80908F0E6090900E8F
:104CB0007090910E60964FAD6097442309F415CF24
:104CC00067968CAD9DADAEADBFAD6797892B8A2B36
:104CD0008B2B71F0D701C60167962CAD3DAD4EAD63
:104CE0005FAD6797821B930BA40BB50BB7FD31C06B
:104CF000292D382DA3016C966FAD6C97A0967FADD2
:104D0000A097A4968FADA497A8969FADA8970F944F
:104D1000981220E030E040EC5FE30F94421A87FDE8
:104D200055C1D701C601805A9541AF4FBF4F679615
:104D30008CAF9DAFAEAFBFAF67976C969FAE6C97D1
:104D4000A0968FAEA097A4966FAEA497A8967FAEBC
:104D5000A89780915402882309F438C1C090240E8A
:104D6000D090250E0D2C000CEE08FF08C701B601EF
:104D70000F94481A9B01AC01692D782DC3010F9443
:104D8000E11418160CF022C1612E702E8B2C9A2C77
:104D900061CE2335B3E03B0711F40C94133008F4D3
:104DA00040C5203A43E0340709F032C581E08093E2
:104DB000B60F40E060E0C7010E94C4410C94DE18C9
:104DC00060E070E0C8010196C156DF4F2883CF59DB
:104DD000D040C056DF4F3883C05AD040CF55DF4F48
:104DE0004883C15AD040CE55DF4F5883C25AD04075
:104DF0000F94FD15CE55DF4F5881C25AD040CF5584
:104E0000DF4F4881C15AD040C056DF4F3881C05A69
:104E1000D040C156DF4F2881CF59D0400C945D1A45
:104E20002D3D310511F40C94212F08F4BBC5223E11
:104E3000310509F0AEC50E944B7D0C94DE18203779
:104E4000310511F40C94F12F10F40C94592F2137E3
:104E5000310509F095C563E570E0C7010F94C515EC
:104E60009093C8138093C713009711F40C944B359B
:104E70004AE050E060E070E001960F94631797FFFE
:104E800002C00C94D1348091C7139091C8134AE0AA
:104E900050E060E070E001960F9463176F3F71057A
:104EA0008105910509F014F40C94BE348CE38093D1
:104EB0004F020C94DE182032310511F40C94B330FB
:104EC00010F40C9425302A32310509F098C463E5BA
:104ED00070E0C7010F94C5159093C8138093C71352
:104EE000009711F40C94DE184AE050E060E070E0A6
:104EF00001960F9463176B017C016F3F710519F0E8
:104F000010F00C94DE1860E570E08091B10490918F
:104F1000B2040F94C5159093C8138093C7130097DC
:104F200011F40C9401354AE050E060E070E0019625
:104F30000F9463178B0177FF02C00C94DE18CB012E
:104F40009927E7E0F3E006C033E0E735F30711F413
:104F50000C942D332191319128173907A9F7E1E3FA
:104F6000FCE08491882351F002E31CE00E944A8710
:104F7000F80184910F5F1F4F8111F8CFEEE8F6E042
:104F80008491882311F40C94DE180FE816E00E9437
:104F90004A87F80184910F5F1F4F8111F8CF0C945D
:104FA000DE1881E08093200290EC892E94E0992E07
:104FB00080E1D4011D928A95E9F700E010E09801A4
:104FC000B901A801D901C8010C94201B8091540299
:104FD000882311F40C94DE1886E197E00E94DDC767
:104FE0000C94DE182135310509F455C708F4E3C4E3
:104FF0001092AF040C94DE182E32F1E03F0711F44A
:105000000C94173008F016C40E94407A0C94DE18F5
:105010002737310509F406C708F415C481E08093E9
:1050200020028093AB040C94DE18C701C12CD12C54
:1050300076010C94E71C20E030E040EC51E46091F4
:10504000C4047091C5048091C6049091C7040F9464
:10505000981252CB20E030E044E252E46091C00468
:105060007091C1048091C2049091C3040F9498126E
:105070006B018C013E2D2F2D13CB2230310508F012
:10508000B1C060E570E0C7010F94C5159093C813D7
:105090008093C713009711F40C9444334AE050E016
:1050A00060E070E001960F948B184B015C01DD24E9
:1050B000D394672B682B692B09F4D12C63E570E03E
:1050C0008091B1049091B2040F94C5158C01909316
:1050D000C8138093C713892B11F40C94D63365E45D
:1050E00070E0C8010F94C5155C01009711F40C9491
:1050F000CE33DC011C9260E070E0C80101960F9491
:10510000FD1525E4F501208320E030E04AE754E472
:105110000F94A71A0F94FC134B015C01D11009C026
:10512000672B682B692B29F4D7018C9181110C9482
:10513000533387EB95E00E94DDC781E08093330D08
:1051400083E090E09093700E80936F0E0E9426F79C
:105150000E94AC3C60934A0E70934B0E80934C0EB1
:1051600090934D0E81149104A104B104A1F0860E18
:10517000971EA81EB91E0E94AC3CDC01CB01881909
:105180009909AA09BB09B7FD1AC01092330D0C94F6
:10519000DE180E9466A78091330D8111FACF8091AD
:1051A000B70F81110C94F13486E995E00E94DDC7B8
:1051B000ECCF8BE294E00E94DDC70C94281D809117
:1051C000330D882311F30E9466A7D5CF273131050F
:1051D00011F00C94DE1840E061E0C7010E94C44168
:1051E0000C94DE182131310511F00C94DE188DEA93
:1051F00098E00E94DDC75F988A989FB7F8948091E5
:1052000008018E7F809308019FBF12980C94DE18CE
:10521000312C0E9426F78091B1049091B2040C9435
:10522000D319243A314011F00C94DE180E94F8D2C0
:105230000C94DE18CE0180961C01DE019896ED9646
:10524000BFAFAEAFED97FE01B496E996FFAFEEAFFC
:10525000E997C090490E80914E0E90914F0EA0910B
:10526000500EB091510E88A399A3AAA3BBA380911D
:10527000520E9091530EA091540EB091550E8CA3E6
:105280009DA3AEA3BFA38091560E9091570EA091FF
:10529000580EB091590E88A799A7AAA7BBA7ED965B
:1052A0004EAD5FADED97E9966EAD7FADE997C1016B
:1052B0000E9497E8C1010E94C6FFC557DF4FE880F2
:1052C000F9800A811B81CB58D0402AE53EE048EDA9
:1052D00054E064ED74E080ED94E00E949EDA80E199
:1052E000EEE4FEE0A0ECB4E001900D928A95E1F7C7
:1052F0000E94AC3C60934A0E70934B0E80934C0E10
:1053000090934D0E0C94DE1880915E0E85FF1EC0AA
:10531000A090C804B090C904C090CA04D090CB0437
:10532000E090C404F090C5040091C6041091C70435
:105330002091C0043091C1044091C2045091C30433
:1053400061E675E082E895E00E94AB870E94F14635
:105350000C94CA1C273F314011F00C94DE180E94B7
:10536000A3CF0C94DE182D36310511F00C94DE1805
:105370008DE690E00E9483C981110C94DE18809123
:105380005E0E83FF02C00C94DE18E090B104F09032
:10539000B20463E570E0C7010F94C5158C019093CA
:1053A000C8138093C713F1E06C96FFAF6C97892BFD
:1053B00011F40C94B23365E470E0C8010F94C51584
:1053C0007C01892B11F40C94AA33D7011C9260E064
:1053D00070E0C80101960F94FD1525E4F7012083C4
:1053E0000F94F6137093270E6093260E0091C71347
:1053F0001091C81365E470E0C8010F94C5157C01D5
:10540000009711F40C94A233DC011C9260E070E070
:10541000C80101960F94FD1525E4F701208320E0D3
:1054200030E040EA52E40F94421A181614F40C9437
:105430006A330E94DBC684E097E00E94DDC760917A
:10544000260E7091270E072E000C880B990B0F94D7
:10545000481A2091920E3091930E4091940E5091E3
:10546000950E0F94E114181624F489EF96E00E942B
:10547000DDC70E94E3F981E0809354021092700E20
:1054800010926F0E812C912C54016B961CAE1DAEA8
:105490001EAE1FAE6B9760961FAE6097A0961FAEB4
:1054A000A097FCE3A496FFAFA4972CE1A8962FAF9A
:1054B000A89736E4AC963FAFAC97212C312C00E88E
:1054C0001FEBC12CD12C760167968CAE9DAEAEAE93
:1054D000BFAE679748016091260E7091270E072E88
:1054E000000C880B990B0F94481A5B018C019101F9
:1054F000A4010F94421A8823D9F02091920E309182
:10550000930E4091940E5091950EB501C8010F94E1
:10551000421A881F8827881F60968FAF60976C9605
:105520004FAD6C97442311F08111CBC01501480198
:105530000E94AC3C2B013C01DC01CB016B962CADF5
:105540003DAD4EAD5FAD6B97821B930BA40BB50BBE
:10555000B7FDC3C0D301C20188519C4FAF4FBF4FAD
:105560006B968CAF9DAFAEAFBFAF6B970E94516093
:10557000E5EFF6E08491882351F006EF16E00E94F3
:105580004A87F80184910F5F1F4F8111F8CFC11432
:10559000D104E104F10409F0B8C7E2EFF6E0849128
:1055A000882351F003EF16E00E944A87F8018491A6
:1055B0000F5F1F4F8111F8CF0E9466A70E94AC3C7D
:1055C00060934A0E70934B0E80934C0E90934D0E49
:1055D000A090920EB090930E0091940E1091950EA3
:1055E0009501A801B101C4010F9498129F7720E0A2
:1055F00030E040E85FE30F94421A87FD98C0C12C69
:10560000D12C76016096FFAD6097FF2309F443C06B
:1056100067962CAD3DAD4EAD5FAD67972115310559
:105620004105510541F0D301C201821B930BA40B2C
:10563000B50BB7FD30C09501A801A0966FADA0973E
:10564000A4967FADA497A8968FADA897AC969FAD72
:10565000AC970F94981220E030E040EC5FE30F9499
:10566000421A87FD2EC0D301C201805A9541AF4F27
:10567000BF4F67968CAF9DAFAEAFBFAF6797A09699
:10568000AFAEA097A496BFAEA497A8960FAFA89769
:10569000AC961FAFAC9780915402882391F0C1144F
:1056A000D104E104F10409F416CF90E1491A97E21C
:1056B000590A610871084C185D086E087F0877FC6C
:1056C0000ACF80915402882311F40C94DE1884EEE2
:1056D00096E00E94DDC70C94DE180E9466A70E9427
:1056E000AC3C60934A0E70934B0E80934C0E90939B
:1056F0004D0EA090920EB090930E0091940E1091CA
:10570000950E9501A801B101C4010F9498129F77DD
:10571000C114D104E104F10409F469CF20E030E0C0
:1057200040E450E40F94E11418160CF06BCF7301B1
:10573000620168CF2C31310511F00C94DE1840E085
:1057400060E0C7010E94C4410C94DE18283C31057A
:1057500011F00C94DE180E949CB70C94DE182C38C3
:10576000310511F00C94DE1880915E0E83FF02C0AB
:105770000C94DE1863E570E0C7010F94C5158C0129
:105780009093C8138093C713009711F40C94DE18FC
:1057900065E470E00F94C5157C01009711F40C943A
:1057A000C335DC011C9260E070E0C80101960F94E3
:1057B000FD1525E4F70120830F94F6137093250E51
:1057C0006093240E0C94DE1880EC882E84E0982ED2
:1057D00080E1F40111928A95E9F700E010E0980168
:1057E000B901A801D901C8010C94201B243F314004
:1057F00011F00C94DE180E94913A0C94DE182B34B0
:10580000310511F00C94DE180E94C1800C94DE1852
:10581000273E334011F00C94DE180E9499CE0C9470
:10582000DE182A39324011F00C94DE180E94DC7D1B
:105830000C94DE182F32314011F00C94DE180E94C7
:105840007B740C94DE182537310511F00C94DE18AA
:1058500060E0C7010E941C5B0C94DE1828363105FD
:1058600011F00C94DE1888E690E00E9483C9811143
:105870000C94DE1880915E0E83FF02C00C94DE183B
:1058800063E570E08091B1049091B2040F94C51566
:105890008C019093C8138093C713009709F46CC0D0
:1058A00065E470E00F94C5157C01009711F40C9429
:1058B0007E35DC011C9260E070E0C80101960F9417
:1058C000FD1525E4F70120830F94F6137093270E3E
:1058D0006093260E0091C7131091C81365E470E021
:1058E000C8010F94C5157C01009711F40C948635FE
:1058F000DC011C9260E070E0C80101960F94FD1578
:1059000025E4F701208320E030E040EA52E40F94E0
:10591000421A181634F00E94DBC688EA96E00E940C
:10592000DDC70091C7131091C81365E470E0C8018A
:105930000F94C5157C01009711F40C947635DC01A9
:105940001C9260E070E0C80101960F94FD1525E4FB
:10595000F70120839B01AC016091920E7091930E30
:105960008091940E9091950E0F94421A87FF04C077
:105970008DE996E00E94DDC70E94E3F90C94DE18E1
:105980002237310511F00C94DE180E9434B80C94C3
:10599000DE182831314011F00C94DE180E943B7C57
:1059A0000C94DE182C3D310511F00C94DE180E9489
:1059B000C27D0C94DE182D34310511F00C94DE18E4
:1059C0000E94DBC60C94DE182E3C310511F00C94BD
:1059D000DE180E946B7E0C94DE182B3C310511F012
:1059E0000C94DE180E94F7B60C94DE182F5F3F4F20
:1059F000DF01A20FB31F9C910C94D62369E470E0E1
:105A0000C6010F94C5157C019093C8138093C713EA
:105A1000009711F40C94323565E470E00F94C515CD
:105A20005C01009711F40C942835DC011C9260E0B5
:105A300070E0C70101960F94FD156B017C0185E4B0
:105A4000F50180836AE470E08091B1049091B20422
:105A50000F94C5154C019093C8138093C713892BDD
:105A600009F4F1C765E470E0C4010F94C5155C0149
:105A7000009709F4DEC7DC011C9260E070E0C4010D
:105A800001960F94FD152B013C0185E4F5018083FF
:105A90000C94BB1E81E08093AF040C94DE180E942E
:105AA00026F70C94DE180E94095F0C94DE1860E063
:105AB00070E0C80101960F94FD150C94061D0E941C
:105AC000617B0C94DE180E94F5B50C94DE186CE432
:105AD00070E0C7010F94C5158C019093C813809393
